:020000040800F2
:10000000602C0020A9520008B1500008B35000082D
:10001000B5500008B7500008B950000800000000B3
:10002000000000000000000000000000B7130008FE
:10003000BB5000080000000071130008DB0E000830
:10004000CD520008D1520008D5520008D9520008FC
:10005000DD520008E1520008BD500008E5520008DA
:10006000E9520008CF500008ED520008F152000894
:10007000F5520008F9520008FD520008015300082B
:1000800005530008095300080D53000811530008D8
:10009000E15000081553000819530008E750000804
:1000A0001D53000811510008215300082553000872
:1000B000295300082D530008315300083553000818
:1000C000395300083D5300084153000845530008C8
:1000D000495300084D530008515300085553000878
:1000E000595300085D5300086153000878B585B086
:1000F0000B9D002D07D1502080F31188BFF34F8F47
:10010000BFF36F8FFEE70C9C002C07D1502080F3CB
:100110001188BFF34F8FBFF36F8FFEE75426009611
:10012000009E542E07D0502080F31188BFF34F8FCC
:10013000BFF36F8FFEE7002C10D00A9E25630225C7
:1001400084F8515000250395029404AD0195009662
:1001500000F03CF8204600F08BF801E0002004900D
:10016000049806B070BD2DE9F84384B00746884670
:1001700016469946B00000F0AFFC05000AD05420A6
:1001800000F0AAFC040001D0256304E0284600F03A
:1001900011FD00E00024002C13D00D990C980022D2
:1001A00084F8512003920294019100904B4632460C
:1001B0004146384600F00AF8204600F059F8012080
:1001C00001E04FF0FF3005B0BDE8F0832DE9F047C6
:1001D00005460A9E306B00EB8200071FFF08FF00F8
:1001E00017F0070007D0502080F31188BFF34F8F1E
:1001F000BFF36F8FFEE70246102A08D2885CB4185E
:1002000084F83400885C002801D0521CF4E7DDF843
:100210002090002086F84300B9F1060F01D94FF075
:100220000609099C9846C6F82C9006F1440ACAF8BB
:100230000090CAF80400301D00F049FD06F11800D6
:1002400000F045FD3661C9F10709C6F818907662DD
:100250000020CAF808008AF80C00424629463846B1
:1002600000F0AEFD3060002C00D02660BDE8F087C5
:1002700038B5044600F005FEDFF8E057E86C401C96
:10028000E864A86A002806D1AC62E86C01280BD1AA
:1002900000F018FB08E0A86D002805D1E06AA96A03
:1002A000C96A884200D3AC62A86E401CA866E06AA6
:1002B000696D0122824011436965211DDFF8A02785
:1002C00000EB800302EB830000F004FD00F0F2FD80
:1002D000A86D00280DD0A86AC06AE16A884208D2D9
:1002E0004FF08050DFF87C170860BFF34F8FBFF3EB
:1002F0006F8F31BD10B504460020002C14D0DFF8FC
:100300005C07406F002807D0502080F31188BFF3AE
:100310004F8FBFF36F8FFEE700F012F900212046E8
:1003200000F0A2FB00F012F9002808D14FF0805035
:10033000DFF830170860BFF34F8FBFF36F8F10BD2A
:1003400038B5044600F09DFDDFF81057002C00D1B1
:10035000AC6A201D00F0E4FC00280FD1E16ADFF850
:10036000000701EB810292008058002806D1686DD9
:10037000012202FA01F120EA01016965A06A002860
:1003800003D004F1180000F0CBFC211D05F138006A
:1003900000F0A0FC94F85000012802D1002084F85D
:1003A000500000F087FDA86D002805D000F069FD21
:1003B00000F0E9FA00F07EFDA86A844221D1A86D20
:1003C000002814D0686F002807D0502080F31188CF
:1003D000BFF34F8FBFF36F8FFEE74FF08050DFF812
:1003E00084160860BFF34F8FBFF36F8F31BDA86BCA
:1003F000E96C884202D10020A86231BDBDE83140DD
:100400006FE131BD10B401460020002907D1502012
:1004100080F31188BFF34F8FBFF36F8FFEE7DFF8D4
:100420003C264B6902F13804A34205D1896A914206
:1004300002D0002900D1012010BC704738B504005B
:1004400007D1502080F31188BFF34F8FBFF36F8F18
:10045000FEE7DFF80856A86A84422AD000F011FDB2
:100460002046FFF7CFFF00281FD0201D00F058FCCA
:10047000E06A696D0122824011436965211DDFF840
:10048000E02500EB800302EB830000F023FCE06A30
:10049000A96AC96A884208D34FF08050DFF8C415B2
:1004A0000860BFF34F8FBFF36F8FBDE8314000F09E
:1004B00001BD31BD10B586B000200590049003AA9F
:1004C00004A905A800F060FD059802900498019029
:1004D000002000900346039A17A10FF2C930FFF7DE
:1004E00005FEDFF878452067002801D0012000E0F4
:1004F0000020012801D100F05DFD012811D150201C
:1005000080F31188BFF34F8FBFF36F8F4FF0FF3031
:10051000E0660120A0650020206500F071FC06B0B7
:1005200010BD10F1010FFAD1502080F31188BFF3F4
:100530004F8FBFF36F8FFEE749444C45000000002A
:10054000DFF81805416F491C4167704770B50024FA
:100550002546DFF80865706F002807D1502080F32A
:100560001188BFF34F8FBFF36F8FFEE700F089FC58
:10057000706F401E7067706F002843D1F06C0028C8
:100580001FD13FE0F068C46804F1180000F0C8FB18
:10059000201D00F0C5FBE06A716D0122824011430D
:1005A0007165211DDFF8282500EB800302EB830035
:1005B00000F090FBE06AB16AC96A884201D3012069
:1005C000306630680028DDD1002C01D000F0DBF966
:1005D000F46D002C09D000F01DF8002801D0012096
:1005E0003066641EF7D12846F065306E002809D0C9
:1005F00001254FF08050DFF86C140860BFF34F8F77
:10060000BFF36F8F00F056FC284670BDDFF84C0436
:10061000006D7047F8B50026DFF84074786F002849
:1006200056D13C6D641C3C6514D1F86A0068002802
:1006300007D0502080F31188BFF34F8FBFF36F8F27
:10064000FEE7F86A396BF9623863786E401C7866A9
:1006500000F099F9F86E84422AD31EE0281D00F0BC
:100660005FFBA86A002803D005F1180000F058FBD2
:10067000E86A796D0122824011437965291DDFF80E
:10068000502400EB800302EB830000F023FBE86AB8
:10069000B96AC96A884200D30126F86A006800284E
:1006A00012D0F86AC068C56868688442D6D2F86615
:1006B000B86ADFF81C14C06A00EB8002900008588A
:1006C000022808D3012606E04FF0FF30F866EFE776
:1006D000F86D401CF865386E002800D001263046C1
:1006E000F2BDDFF87813486F002802D001200866B9
:1006F000704700200866486DB0FA80F0C0F11F0016
:1007000000EB80029200DFF858339858002807D198
:10071000502080F31188BFF34F8FBFF36F8FFEE738
:10072000981842685268426000F108039A4201D169
:10073000526842604068C0688862704710B50C46D5
:10074000002807D1502080F31188BFF34F8FBFF3EB
:100750006F8FFEE7DFF80413896A183100F0C6FADC
:1007600001212046BDE8104000F07EB938B50D46A5
:100770001446002807D1502080F31188BFF34F8F13
:10078000BFF36F8FFEE7DFF8D412896A183100F0EB
:10079000A1FA002C01D04FF0FF3521462846BDE8D4
:1007A000344000F061B938B5C068C468002C07D186
:1007B000502080F31188BFF34F8FBFF36F8FFEE798
:1007C00004F1180000F0ACFADFF89052686F0028CE
:1007D00012D1201D00F0A4FAE06A696D0122824066
:1007E00011436965211DDFF8E82200EB800302EB6D
:1007F000830000F06FFA04E004F11801284600F0CD
:1008000069FAA86AC06AE16A884203D201200146F7
:10081000296632BD002032BD90494A6E0260096DE2
:1008200041607047F8B504460D46002C07D15020B2
:1008300080F31188BFF34F8FBFF36F8FFEE7002D5A
:1008400007D1502080F31188BFF34F8FBFF36F8F14
:10085000FEE700F016FB8148016D62688B1A2E6876
:1008600016F1010F01D1002413E0406E2768B84251
:1008700003D0914201D301240BE0B34206D2F31A14
:100880002B602046FFF7C8FF002402E0002028600C
:10089000012400F00FFB2046F2BD01206F490866DD
:1008A0007047000080B500F034F86D4800680228F9
:1008B000F9D34FF080506B490860BFF34F8FBFF3FF
:1008C0006F8FF0E738B5002407E0654804EB84013A
:1008D00000EB810000F0EEF9641C072CF5D35F4CAF
:1008E00004F1780000F0E6F904F18C05284600F0E8
:1008F000E1F9204600F0DEF904F1140000F0DAF925
:1009000004F1380000F0D6F904F17800E0622563C4
:1009100031BD38B5DFF8BC4111E000F0B2FA206A11
:10092000C568281D00F0FCF9E06C401EE064606BB7
:10093000401E606300F0BEFA284600F004F8606BC9
:100940000028EAD131BD10B5044694F851000028C2
:1009500008D1206B00F02EF92046BDE8104000F0D1
:1009600029B910BD012804D12046BDE8104000F08F
:1009700021B90228F5D0502080F31188BFF34F8FA2
:10098000BFF36F8FFEE73549C86A0068002803D1BE
:100990004FF0FF30C8667047C86AC068C0684068DA
:1009A000C8667047DFF82C11886D002801D101203E
:1009B0007047486F002801D102207047002070471F
:1009C000F8B504460021002C44D0244DA86A844286
:1009D00007D0502080F31188BFF34F8FBFF36F8F84
:1009E000FEE7A06C002807D1502080F31188BFF3E8
:1009F0004F8FBFF36F8FFEE7401EA064E26A636C07
:100A00009A4227D0002825D11426DFF8C470201D73
:100A100000F086F900280CD1E16A06FB01F0385895
:100A2000002806D1686D012202FA01F120EA0101D5
:100A30006965606CE062C0F10700A061E06A696D01
:100A40000122824011436965211D4643B81900F017
:100A500041F901210846F2BD00000000AC2600204B
:100A60004C27002004ED00E0F8B506460C46194D71
:100A70002F6DA86A001D00F053F9002806D1A86A5E
:100A8000696D0122C06A82409143696516F1010FC8
:100A900009D1002C07D0A86A011D05F13800BDE876
:100AA000F44000F017B9F619A86A4660BE42A86A79
:100AB00005D2011D286BBDE8F44000F017B9011DF7
:100AC000E86A00F013F9E86E864200D2EE66F1BDE6
:100AD0004C270020AC260020F8B504460025FFF77F
:100AE0002FFD734FB868002801D100F092F87869A3
:100AF000044238D1002C13D0083414F0070F0FD063
:100B000004F1080004F00704041B14F0070F07D0D9
:100B1000502080F31188BFF34F8FBFF36F8FFEE734
:100B2000002C20D0F868A0421DD339463E6870687A
:100B3000A04227D23068002824D031460646F6E786
:100B4000301D02517460084600F08AF87168F86838
:100B5000401AF8603A69904200D2386178690143DE
:100B6000716000203060FFF7F1FC15F0070007D03E
:100B7000502080F31188BFF34F8FBFF36F8FFEE7D4
:100B80002846F2BDB8688642EDD0086808300546B0
:100B9000306808607268121B112AD7D3311911F01E
:100BA0000700CDD0502080F31188BFF34F8FBFF3E3
:100BB0006F8FFEE7002800D1704738B5A0F1080418
:100BC00061683B4D6A69114207D1502080F311885A
:100BD000BFF34F8FBFF36F8FFEE72068002807D069
:100BE000502080F31188BFF34F8FBFF36F8FFEE764
:100BF0000ED191436160FFF7A3FCE968606841187A
:100C0000E960204600F02CF8BDE83140FFF79EBCBB
:100C100031BD10B44FF44060254901F1180213466C
:100C200001F1180414F0070F05D0D31DDB08DB0019
:100C3000C3F5406010180B6000224A60C0180838E5
:100C4000C008C000886042600260C21A5A60186022
:100C500058680861C8604FF00040486110BC704798
:100C600030B413490A4600E01A4613688342FBD3A6
:100C70005368D418844203D14068C31853601046A7
:100C800043681468C518A5420BD189688C4206D008
:100C90006168CB18436011680968016002E0016077
:100CA00000E00460824200D0106030BC7047000059
:100CB000D401002000F1080141604FF0FF31816054
:100CC00000F10801C160016100210160704700214D
:100CD0000161704742684A6093688B60936859600D
:100CE000916008610168491C0160704730B40A686E
:100CF00012F1010F01D1036907E000F1080300E0E0
:100D000023465C682568AA42FAD25A684A60916014
:100D10008B60596008610168491C016030BC7047F4
:100D20000169826843689A60426883685A604A68C9
:100D3000824201D182684A60002202610868401E36
:100D4000086008687047F0B4024610689568131888
:100D5000506803EB5004C0071DD54D441BE013F849
:100D6000017B05F8017B491EF9D1A0B1B60813F843
:100D7000011B06F00306032E08BF13F8016B01EBFD
:100D800006214942801C294405D011F8016B05F861
:100D9000016B401EF9D1A3420ED013F8016B16F07F
:100DA000030104BF13F8011BC91C30090F28DAD155
:100DB00013F8010B0F30D6E7F0BC02F10C007047BE
:100DC00010B4A0F10C034FF080749C6049084900F6
:100DD00059600FF21101196040F8202D203810BC25
:100DE0007047000050205849496811F1010F80F305
:100DF0001188BFF34F8FBFF36F8F00D0FEE7FEE780
:100E00001CB5524801780191FF21017001788DF8DD
:100E100000104D4C9DF8001001F050012170072189
:100E2000A16006E0491EA1609DF8001049008DF800
:100E30000010A1689DF800201206F3D4C1F107024A
:100E4000042A07D0502080F31188BFF34F8FBFF3DF
:100E50006F8FFEE7090201F4E061A1600199017062
:100E60003B48016841F470010160016841F0704144
:100E7000016000F075F80020606000F0ACFA00201E
:100E800016BD502080F31188BFF34F8FBFF36F8FD3
:100E90002D494A68521C4A60012A0AD12D49096825
:100EA000090606D080F31188BFF34F8FBFF36F8F11
:100EB000FEE7704724494868002807D1502080F396
:100EC0001188BFF34F8FBFF36F8FFEE7401E48605E
:100ED00002D1002080F31188704780B5502080F344
:100EE0001188BFF34F8FBFF36F8FFFF793FB00287D
:100EF00003D04FF0805017490860002080F311881C
:100F000001BD0000EFF305800F4910280CD3124AF1
:100F1000105C0A78904207D2502080F31188BFF30A
:100F20004F8FBFF36F8FFEE788680C49096801F4A3
:100F3000E061884207D2502080F31188BFF34F8FC1
:100F4000BFF36F8FFEE770474800002000E400E029
:100F500020ED00E004ED00E0F0E300E00CED00E047
:100F60000748002101608160064909684FF47A72E0
:100F7000B1FBF2F1491E416007210160704700BFDB
:100F800010E000E060000020084B036003F1540013
:100F90000860802010607047054B036003F1540027
:100FA00008604FF48070106070470000401F002000
:100FB000BC15002038B586B0002400F0A1F9DFF898
:100FC0009453A868002819D020460590049003AADD
:100FD00004A905A8FFF7E0FF059802900498019086
:100FE000022000902346039A0FF274310FF2E500BD
:100FF000FFF77CF8E860002800D00124002C07D11E
:10100000502080F31188BFF34F8FBFF36F8FFEE73F
:10101000204607B030BDFEB504461E460020002C19
:1010200007D1502080F31188BFF34F8FBFF36F8F2C
:10103000FEE7DFF82073BD68002D1CD000910192FF
:101040000294062911DAFFF7ADFC022806D1089AAE
:1010500000236946B86800F09AFAFEBD00231A46DC
:101060006946B86800F093FAFEBD03463246694609
:10107000284600F04AFBFEBD7CB504460D46B54847
:101080000068C068C668301DFFF74AFEF069012895
:101090001AD123462A46B1690919304600F079F879
:1010A000002811D000200090034622460146304619
:1010B000FFF7B1FF002807D1502080F31188BFF35C
:1010C0004F8FBFF36F8FFEE73046716ABDE87C40FB
:1010D0000847000080B5684600F03BF8009900F032
:1010E00003F800F075F8F6E77CB505460C46FFF707
:1010F00027FA684600F03AF806460098002825D1FD
:10110000002C08D1AE4206D3FFF720FA314628461C
:10111000FFF7B2FF73BD8F48002C04D04168096807
:101120004C1EA441E40F2246AD1B2946806800F006
:10113000C9FCFFF70BFA00280AD14FF0805086490E
:101140000860BFF34F8FBFF36F8F73BDFFF7FEF9DA
:1011500073BD80490A681168491E8941C90F016041
:1011600002D1D068006870470020704770B504460F
:10117000FFF74CFA0546794E3068854204D200F0FC
:101180008CF80120206001E00020206035602846B6
:1011900070BD10B50024416000618A420BD3D21AA1
:1011A00081698A4201D3012410E0011D6948406829
:1011B000FFF79CFD0AE09A4203D2994201D3012431
:1011C00004E0011D63480068FFF790FD204610BD54
:1011D00018B585B005E00B460A4641182046FFF7D2
:1011E000D8FF002202A95B48806800F0F8FA0028C6
:1011F00051D002980028F4D4049C6069002802D0E1
:10120000201DFFF78DFD01A8FFF7B0FF01460298F2
:101210000928E6D8DFE800F0060606052B370606A3
:10122000052BDEE7039803460A46A1690818014624
:101230002046FFF7AEFF0028D3D02046616A8847DA
:10124000E0690128CDD1002000900346039AA069EF
:10125000821819462046FFF7DEFE0028C1D1502033
:1012600080F31188BFF34F8FBFF36F8FFEE70398B2
:10127000A0610028AFD1502080F31188BFF34F8FB9
:10128000BFF36F8FFEE794F828000028A9D120460D
:10129000FFF790FCA5E706B010BD7CB52D4C05E02E
:1012A00068602D61291D2068FFF720FD216808680E
:1012B000002821D0C8680668C568281DFFF730FDE2
:1012C0002846696A8847E8690128EFD1A86980192A
:1012D0008642E5D300200090034632460146284668
:1012E000FFF799FE0028E1D1502080F31188BFF369
:1012F0004F8FBFF36F8FFEE760682060616073BD42
:101300001CB5FFF7BEFD134CA06800281DD104F1E9
:101310001000FFF7CFFC04F12400FFF7CBFC04F131
:101320001000206004F1240060600020009004F1AF
:10133000380304F180020C210A2000F0A4F8A06018
:10134000002802D008A100F0A7FBBDE81340FFF77A
:10135000B1BD0000B425002004ED00E058280020B5
:10136000546D722053766300546D7251000000007A
:10137000EFF30980BFF36F8F1D4B1A6820E9F00F60
:10138000106008B54FF0500080F31188BFF34F8F05
:10139000BFF36F8FFFF7A5F94FF0000080F31188BE
:1013A000BDE8084019680868B0E8F00F80F30988C4
:1013B000BFF36F8F70470E4B19680868B0E8F00FE5
:1013C00080F30988BFF36F8F4FF0000080F311881E
:1013D0004EF00D0E704707480068006880F30888DB
:1013E00062B661B6BFF34F8FBFF36F8F00DF0000AF
:1013F000D426002008ED00E038B504460D46002C48
:1014000007D1502080F31188BFF34F8FBFF36F8F48
:10141000FEE7FFF736FD2168E26B206C4243881837
:1014200060600020A0632068A0602168E26B521E0B
:10143000206C42438818E06004F144004FF0FF3113
:1014400001704170002D12D12069002817D004F1DD
:101450001000FFF7A8F9002811D04FF08050DFF8F6
:101460005C160860BFF34F8FBFF36F8F07E004F186
:101470001000FFF71FFC04F12400FFF71BFCFFF72F
:1014800019FD012032BD38B51C46002807D1502077
:1014900080F31188BFF34F8FBFF36F8FFEE7002CEF
:1014A00007D1502080F31188BFF34F8FBFF36F8FA8
:1014B000FEE7002A05D00B465B1E9B41DB43DB0F9A
:1014C00000E00123002B07D1502080F31188BFF3E7
:1014D0004F8FBFF36F8FFEE7002A04D10B465B1ED0
:1014E0009B41DB0F00E00123002B07D1502080F34C
:1014F0001188BFF34F8FBFF36F8FFEE74823009330
:10150000009B482B07D0502080F31188BFF34F8FEA
:10151000BFF36F8FFEE7049B012584F846500094CB
:1015200000F028F8204632BDF8B506460D461746AD
:10153000002E07D1502080F31188BFF34F8FBFF3E7
:101540006F8FFEE7002D01D1002001E005FB06F0C2
:101550004830FFF7C1FA04000AD0002084F84600A2
:1015600000943B4604F148022946304600F002F858
:101570002046F2BD82B0029B002901D11B6000E031
:101580001A60D86319640121184602B034E7F7B530
:1015900005460E461F460024002D07D1502080F33B
:1015A0001188BFF34F8FBFF36F8FFEE7002E04D17A
:1015B000286C401E8041C00F00E00120002807D1A8
:1015C000502080F31188BFF34F8FBFF36F8FFEE77A
:1015D000022F02D1E86B012801D1012000E0204652
:1015E000002807D1502080F31188BFF34F8FBFF33D
:1015F0006F8FFEE7FFF7D6F9002804D10298401E4E
:101600008041C00F00E0012000281CD1502080F351
:101610001188BFF34F8FBFF36F8FFEE7029905F17B
:101620001000FFF78BF8284600F0E2F9FEF78EFF76
:10163000002808D14FF08050DFF880140860BFF315
:101640004F8FBFF36F8FFFF71CFCA86BE96B8842CD
:1016500046D3022F44D0029800283DD0002C03D15D
:101660006846FFF7D9F80124FFF724FCFEF768FF6E
:10167000FFF707FC05F1440090F9001011F1010F8C
:1016800001D10021017090F9011011F1010F01D178
:1016900000214170FFF70EFC02A96846FFF7C2F86F
:1016A000002828462BD100F0E8F90028B6D12846BA
:1016B00000F09EF9FEF74AFFC5E7002808D04FF07A
:1016C0008050DFF8F8130860BFF34F8FBFF36F8FC0
:1016D000FFF7F0FB0120FEBDFFF7ECFB0020FEBD95
:1016E0003A463146284600F037F9696A0029E4D0C5
:1016F00005F12400FFF757F80028E0D1E8E700F0F3
:1017000077F9FEF723FF0020FEBD2DE9F8430446DC
:101710000E4615469846002C07D1502080F31188BC
:10172000BFF34F8FBFF36F8FFEE7002E04D1206C05
:10173000401E8041C00F00E00120002807D150204A
:1017400080F31188BFF34F8FBFF36F8FFEE7B8F1BF
:10175000020F02D1E06B012801D1012000E000203E
:101760004FF05009002806D189F31188BFF34F8F3D
:10177000BFF36F8FFEE7FFF7C5FBEFF3118789F328
:101780001188BFF34F8FBFF36F8FA06BE16B88425F
:1017900002D3B8F1020F1DD194F94590424631466B
:1017A000204600F0D9F819F1010F0DD1606A002828
:1017B0000ED004F12400FEF7F6FF002808D0002D1B
:1017C00006D00120286003E009F1010984F8459062
:1017D000012000E0002087F31188BDE8F283F7B50F
:1017E00006460F460024002E07D1502080F31188B2
:1017F000BFF34F8FBFF36F8FFEE7002F04D1306C24
:10180000401E8041C00F00E00120002807D1502079
:1018100080F31188BFF34F8FBFF36F8FFEE7FFF7A1
:10182000C1F8002804D10298401E8041C00F00E09A
:10183000012000280CD1502080F31188BFF34F8F76
:10184000BFF36F8FFEE7304600F0D2F8FEF77EFE62
:10185000FFF717FBB56B002D06D1029800281FD1AA
:10186000FFF728FB0020FEBD3946304600F0AEF8F9
:101870006D1EB563306900280ED006F11000FEF72A
:1018800092FF002808D04FF08050DFF83012086037
:10189000BFF34F8FBFF36F8FFFF70CFB0120FEBD2F
:1018A000002C03D16846FEF7B7FF0124FFF702FBC7
:1018B000FEF746FEFFF7E5FA06F1440090F9001046
:1018C00011F1010F01D10021017090F9011011F106
:1018D000010F01D100214170FFF7ECFA02A968461F
:1018E000FEF7A0FF0028304619D100F0BAF8002812
:1018F000A9D0029906F12400FEF720FF304600F03F
:1019000077F8FEF723FE0028A2D14FF08050DFF8D1
:10191000AC110860BFF34F8FBFF36F8F98E700F0F3
:1019200067F8FEF713FE304600F09BF800288FD0D2
:101930000020FEBD10B5040007D1502080F31188AF
:10194000BFF34F8FBFF36F8FFEE7FFF79AFAA46BD9
:10195000FFF7B0FA204610BDF8B506461546002739
:10196000B46B326C002A09D1306800282AD1706823
:10197000FFF726F807460020706023E0002D0CD109
:10198000B06800F0E1F8B068316C0844B06071688C
:10199000884217D33068B06014E0F06800F0D4F8E3
:1019A000F068316C49420844F0603168884204D2E2
:1019B0007068316C49420844F060022D02D1002C5D
:1019C00000D0641E641CB4633846F2BD0B46016C43
:1019D00000290CD0C2681144C1604268914201D311
:1019E0000168C160026CC168184600F0ADB870476C
:1019F000F8B50546FFF745FA05F1440494F901608E
:101A0000304640B2012819DB686A002816D005F17B
:101A10002400FEF7C8FE002801D0FEF73EFF761E28
:101A2000EEE72869002817D005F11000FEF7BBFE8D
:101A3000002801D0FEF731FF7F1E09E04FF0FF3094
:101A400006466670FFF736FAFFF71BFA94F9007046
:101A5000384640B20128E4DA2670BDE8F140FFF7CD
:101A600029BA10B50446FFF70CFAA06B441EA44136
:101A7000E40FFFF71FFA204610BD10B50446FFF72C
:101A800000FAA06BE16B884201D1012400E0002440
:101A9000FFF710FA204610BD10B40023084C00E0F8
:101AA0005B1C082B08D254F83320002AF8D144F8E4
:101AB000331004EBC301486010BC704704ED00E034
:101AC000D8270020F8B504460D461646FFF7D9F989
:101AD00004F1380797F90C0010F1010F01D1002033
:101AE000387397F90D0010F1010F01D100207873C0
:101AF000FFF7E0F93868002805D13246294604F19D
:101B00002400FEF733FE2046BDE8F24070E730B413
:101B1000002513E050F8042BD30744BFA9F10103BB
:101B20009A18091F042942F8045BFAD213468C075D
:101B300044BF15809B1CC90748BF1D7050F8041B8B
:101B40000029E7D130BC704762B38B0708D0521E22
:101B500011F8013B00F8013B00F024808B07F6D11F
:101B6000830740F0208000BF103A07D330B4B1E8BB
:101B70003810103AA0E83810F9D230BC530724BF0F
:101B8000B1E80810A0E8081044BF51F8043B40F841
:101B9000043BD20724BF31F8022B20F8022B44BFAC
:101BA0000B7803707047121F17D35B0009D151F8EF
:101BB000043B20F8023B1B0C121F20F8023BF6D21C
:101BC0000BE051F8043B00F8013B1B0A20F8023BF4
:101BD0001B0C121F00F8013BF3D238BF121D521E1E
:101BE00024BF11F8013B00F8013BF8D87047000012
:101BF0000EB4002003B07047B0F8401041F43F41EC
:101C0000A0F8401000207047B0F8402044F2FF01D7
:101C10000A40A0F8402000207047002070470EB412
:101C200000B500F1400101220A8000220A808A806A
:101C30000A82FFF7E1FF00205DF810FBF0B40022FC
:101C40000D7830F8256048F68F131E40CB78032BB3
:101C50000CD8DFE803F002080C0546F4007606E035
:101C600046F4C06603E046F4806600E0012248F2D4
:101C70008004264320F825600B781E4648F68F75B1
:101C800030F826702F403B43234320F826300F784E
:101C900006460B7B002B7CD1B1F806C04FF6FE73D5
:101CA00003EA0C0C4B78002BB0F8503028D09E196A
:101CB00016EB071707F58067A7F800C00B7830F818
:101CC0002360760608D530F82360354045F400459A
:101CD00045F0C00520F823500B7848F6BF75C97849
:101CE000012930F8231006D00D4085F020052C4343
:101CF00020F82340ECE00D402C4320F82340E7E09F
:101D00009B1913EB071707F58167A7F800C0B0F818
:101D100050309E190B7806EB031606F20C460B6941
:101D2000002B09D1378848F2FF331F4037803388B2
:101D300043F40043338012E03F2B1F4606D27F0856
:101D4000DB0700D57F1CBB02338008E07F0913F05E
:101D50001F0F00D17F1EBB0243F4004333800B787A
:101D600030F82360760408D530F82360354045F418
:101D7000404545F0800520F823500B7830F823507B
:101D80004BF68F710D4085F440552C4320F82340CD
:101D90009EE030F827302B4043F4014343F08003AA
:101DA00020F82730B0F85070BF190B7807EB0317F5
:101DB00007F58067B1F808C04FF6FE7303EA0C0C14
:101DC000A7F800C0B0F850309E190B7806EB031648
:101DD00006F581664F894FF6FE731F4037800E78F7
:101DE0004B78002B30F8263033D15B0408D530F81F
:101DF00026302B4043F4404343F0800320F8263044
:101E00000B7830F8237048F2C0067F0605D530F80D
:101E100023702F40374320F823700B7830F823705D
:101E20003D402E4320F823600D7830F825604BF6B6
:101E30008F731E4086F44056264320F825600B78A9
:101E400030F8235048F6BF710D402C4320F8234052
:101E50003EE05B0408D530F826302B4043F4404385
:101E600043F0800320F826300B7830F823607606A4
:101E700008D530F823602E4046F4004646F0C006F0
:101E800020F823600B7830F82360354045F4404556
:101E900045F0800520F823500D7848F6BF73CE78C2
:101EA000012E30F8256006D0334083F02003234311
:101EB00020F8253003E03340234320F825300B7809
:101EC00030F823504BF68F710D402C4320F82340FF
:101ED0001046F0BC704730B402460D78487848F69A
:101EE0008F740B7B002B33D1002832F8250017D0DC
:101EF000400608D532F82500044044F4004444F07C
:101F0000C00422F82540097832F8213048F6BF7025
:101F1000034043F4004343F0800322F8213086E07D
:101F2000400408D532F82500044044F4404444F00D
:101F3000800422F82540097832F821304BF68F7062
:101F4000034043F4004343F0800322F821306EE065
:101F5000002832F8250033D1400408D532F8250096
:101F6000204040F4404040F0800022F825000878EE
:101F700032F8205048F2C0036D0605D532F82050E3
:101F800025401D4322F82050087832F820502C407C
:101F90001C4322F820400C7832F824504BF68F7006
:101FA000054048F280031D4322F82450097832F896
:101FB000214048F6BF700440234322F8213036E028
:101FC000400408D532F82500204040F4404040F05D
:101FD000800022F82500087832F820305B0608D50A
:101FE00032F82030234043F4004343F0C00322F88A
:101FF0002030087832F820301C4044F4404444F04B
:10200000800422F820400C7832F8245048F6BF7043
:10201000054048F280031D4322F82450097832F825
:1020200021404BF68F700440234322F821300020DA
:1020300030BC7047F8B505460E46B06934692F4686
:102040007178012940F0BF80844202D2001BB06148
:1020500002E004460020B061307B002810D1234606
:102060009BB2F2887169284600F0D0F9B5F85000AB
:10207000C719307807EB001707F204473C8093E05C
:10208000084631780A4635F82220520634D5002811
:1020900026D1B5F85000C71907EB011707F20C4716
:1020A000002C09D1398848F2FF3001403980388846
:1020B00040F4004038801DE03F2C204606D2400806
:1020C000E10700D5401C8002388013E0400914F07D
:1020D0001F0F00D1401E800240F40040388009E00C
:1020E000012807D1B5F85000C71907EB011707F20F
:1020F0000C473C80728933E0002826D1B5F85000A7
:10210000C71907EB011707F20447002C09D13988DA
:1021100048F2FF3001403980388840F40040388070
:102120001DE03F2C204606D24008E10700D5401CA8
:102130008002388013E0400914F01F0F00D1401EC8
:10214000800240F40040388009E0012807D1B5F84A
:102150005000C71907EB011707F204473C8032898A
:1021600023469BB27169284600F050F97078002828
:102170000CD1317835F8212048F68F70024042F4B6
:10218000004242F0C00225F821200DE001280BD1C9
:10219000317835F8212048F68F70024042F44042F1
:1021A00042F0800225F82120317835F8212048F6C8
:1021B000BF70024082F0300242F4004242F08002DE
:1021C00025F82120ACE0844202D2001BB06102E07D
:1021D00004460020B061307B002827D1B5F85000BC
:1021E000C719307807EB001707F20C47002C09D10C
:1021F000398848F2FF3001403980388840F4004087
:1022000038807FE03F2C204606D24008E10700D509
:10221000401C8002388075E0400914F01F0F00D187
:10222000401E800240F4004038806BE008460028E1
:1022300027D1B5F85010C919307801EB001101F21F
:102240000441002C09D10A8848F2FF3002400A807C
:10225000088840F4004008801EE03F2C204606D24B
:102260004008E20700D5401C8002088014E04009C5
:1022700014F01F0F00D1401E800240F4004008807F
:102280000AE0012808D1B5F85000C019317800EBF8
:10229000011000F2044004807078002827D1B5F8BE
:1022A0005000C719307807EB001707F20C47002CD5
:1022B00009D1398848F2FF3001403980388840F42C
:1022C000004038801EE03F2C204606D24008E1073F
:1022D00000D5401C8002388014E0400914F01F0F24
:1022E00000D1401E800240F4004038800AE00128FE
:1022F00008D1B5F85000C719307807EB001707F27E
:102300000C473C80317835F821204BF68F70024025
:1023100082F4405242F4004242F0800225F821202B
:102320000020F2BD10B40A7848F2800349780029F1
:1023300030F8224008D048F6BF710C4084F01004F9
:10234000234320F8223007E04BF68F710C4084F4D1
:102350008054234320F82230002010BC704710B472
:102360000A7B002A3FD10B784A78002A30F82320D4
:102370001ED052060AD530F8234048F68F7214401A
:1023800044F4004444F0C00420F82340CA78012AF1
:1023900029D00A7830F8223048F6BF710B4083F01C
:1023A000200343F4004343F0800320F822301AE076
:1023B00052040AD530F8234048F68F72144044F492
:1023C000404444F0800420F823400A7830F822305A
:1023D0004BF68F710B4083F4405343F4004343F0BA
:1023E000800320F82230002010BC7047002902D161
:1023F0008021A0F84C10002070470020704700207A
:102400007047B0F8440070470020704710B400EBEC
:10241000420000F580605B1C5B0807E00A784C789E
:1024200042EA042220F8042B891C5B1EF6D110BC62
:10243000704710B400EB420000F580601A46520865
:1024400006E030F8044B0C70240A4C70891C521EB4
:10245000F7D1DA0701D50088087010BC704700007A
:1024600018B595B000F0B2FB00F03AF800F07DF836
:10247000DFF8E046002204210A20FFF755F8E0606B
:10248000002204210A20FFF74FF8206100220421D6
:102490000520FFF749F860610EA80FF2DC611C22ED
:1024A000FFF762FB00210EA800F0AFFB206007A839
:1024B0000FF2E0611C22FFF757FB002107A800F094
:1024C000A4FB606068460FF2E8611C22FFF74CFB3A
:1024D0000021684600F099FBA06000F091FBFEE748
:1024E00000B593B009A8282100F0BEFB04A8142170
:1024F00000F0BAFB6846102100F0B6FB01200990FD
:102500004FF480300A9000210B9101210D9102219E
:10251000109111904FF48010129009A800F0A8FBC0
:10252000002801D000F026FB0F2004900220059027
:10253000002006904FF48060079000200890012151
:1025400004A800F036FD002801D000F013FB102095
:1025500000904FF480000390684600F031FE0028A0
:1025600001D000F007FB13B000BD30B585B0684660
:10257000102100F079FBDFF8E005016841F010015F
:102580000160016801F0100104910499016841F0B3
:1025900020010160016801F02001049104990168A3
:1025A00041F004010160016801F004010491049903
:1025B000016841F008010160006800F00800049023
:1025C0000498DFF8985500224FF40051284600F097
:1025D0003CFFDFF88C4500224FF47071204600F07C
:1025E00034FF4FF400500090012001900020029031
:1025F000022003906946284600F056FEE92000902C
:10260000DFF86005019002200290DFF85C55694612
:10261000284600F049FE062000900020019002208C
:1026200002906946284600F03FFE4FF4707000901B
:10263000012001900020029002200390694620466C
:1026400000F032FE00220F21062000F073FF06206A
:1026500000F07FFF00220F21092000F06BFF09200E
:1026600000F077FF00220F21172000F063FF1720F2
:1026700000F06FFF05B030BD80B501281CD00828E0
:1026800006D020282CD040283ED0802850D001BD34
:10269000DFF8D414082000F05FF801280BD10220E5
:1026A0008DF80000DFF8AC04012300F14402694614
:1026B0000069FFF72AF801BDDFF8AC14012000F033
:1026C0004BF80128F7D101208DF80000DFF88404D1
:1026D000012300F1440269460069FFF716F801BDC5
:1026E000DFF88414202000F037F80128E3D101201E
:1026F0008DF80000DFF85C04012300F14402694614
:10270000C068FFF702F801BDDFF85C14402000F05C
:1027100023F80128CFD105208DF80000DFF834041C
:10272000012300F144026946C068FEF7EEFF01BDD7
:10273000DFF83414802000F00FF80128BBD10A2004
:102740008DF80000DFF80C04012300F14402694613
:10275000C068FEF7DAFF01BDF8B504460D46002655
:10276000374607E02146284600F067FE002800D1E2
:10277000761C7F1CDFF8F4038742F3DB0F2E01DAAF
:102780000120F2BD0020F2BD2DE9FC4100F0ECFE7D
:102790004FF47A700190DFF8C84312E0686A00F0E5
:1027A00011FF0146686B00F047FF01224FF4807172
:1027B000204600F04AFE01224FF40071204600F04E
:1027C00044FEDFF890536868FDF7BAFD002240210F
:1027D000204600F03AFE00228021204600F035FE1F
:1027E000DFF8786300224FF40051304600F02DFEF0
:1027F00007E0002269462869FEF7F1FF0A20FDF78D
:1028000079FD2869FFF796F80028F2D1E86B0128D6
:102810000FD1AF6B384600F0D5FE0146384600F0C8
:102820000BFFAF69384600F0CDFE0146384600F098
:1028300003FF4FF00008CC4F0EE04246694628697E
:10284000FEF7CDFF0A20FDF755FD2869FFF772F866
:102850000028F2D10120E8630421384600F0EDFDA4
:10286000002821D14FF47A70FDF744FD00224FF487
:102870000051304600F0E9FD4FF47A70FDF73AFD63
:1028800001224FF40051304600F0DFFD08F101084D
:10289000B8F5967FDEDB4FF0000842464FF47071CA
:1028A000204600F0D2FDD0E701224FF4005130461F
:1028B00000F0CBFDE86B012809D1EE69304600F04D
:1028C00081FE0146304600F0B7FE0020E8634FF479
:1028D0007A70FDF70FFD0221384600F0AEFD0128A9
:1028E0007FF46FAF0120E8632E6A304600F06AFE85
:1028F0000146304600F0A0FE01224021204600F0B3
:10290000A4FD01228021204600F09FFD00230A2221
:1029100001A96869FEF73BFE6868FDF78FFD00229C
:102920004FF40071204600F090FD00224FF48071BA
:10293000204600F08AFD00263C272869FEF7FAFFB2
:10294000002818D1286C7843864214DA4FF47A7044
:10295000FDF7D0FC761CF0E76D6A284600F032FEE9
:102960000146284600F068FE01224FF4807120469F
:1029700000F06BFD25E7286C4743BE42BFF60EAF63
:10298000002269462869FEF72AFF9DF80000012809
:10299000E2D00228CFD1AD6A284600F013FE0146EE
:1029A000284600F049FE01224FF40071204600F055
:1029B0004CFD06E71CB54FF47A70009007E000224A
:1029C00069466069FEF70BFF0120FDF793FC614C3F
:1029D0006069FEF7AFFF0028F1D1614C0122802130
:1029E000204600F032FD0098FDF784FC0022802193
:1029F000204600F02AFD0098FDF77CFCE7E7FEB5D5
:102A0000544C0FE000226946E068FEF7E8FE0A2019
:102A1000FDF770FCE068FEF78DFF0028F2D120681A
:102A2000FDF70CFDE068FEF785FF00280CD14FF4A0
:102A3000FA70FDF75FFCF5E700226946E068FEF7F3
:102A4000CEFE0A20FDF756FCE068FEF773FF002873
:102A5000F2D12068FDF774FCE56A284600F0B2FD6B
:102A60000146284600F0E8FD3D4D01224021284660
:102A700000F0EBFC01228021284600F0E6FC6420F7
:102A800001909DF80000012804D0052805D00A28EF
:102A900007D009E0C820019006E04FF4FA700190D9
:102AA00002E04FF42F70019000230A2201A960690F
:102AB000FEF76DFD6068FDF7C1FC9DF80000C0EBFE
:102AC00000118E00002704E04FF4FA70FDF712FCAD
:102AD0007F1CB7EB460F1FDA2069FEF72BFF00289B
:102AE000F2D000208DF8010002460DF101012069AD
:102AF000FEF775FE9DF801000228E5D1A66A304672
:102B000000F060FD0146304600F096FD01224FF4D2
:102B10000071284600F099FC6068FDF711FC002266
:102B20004021284600F091FC00228021284600F038
:102B30008CFC256B284600F045FD0146284600F038
:102B40007BFD67E700680A49884201D100F08CBD2F
:102B500070470000000000201810024000100140E3
:102B6000000C0140000011100008014040420F001D
:102B7000002C014070470000885000088927000899
:102B800000000000000000008000000000000000C5
:102B90000000000094500008B5290008FDFF000067
:102BA00000000000800000000000000000000000A5
:102BB000A4500008FF2900080200000000000000E7
:102BC00080000000000000000000000080B5074801
:102BD000016841F010010160032000F0AAFC002010
:102BE00000F04AFD00F084FD002002BD00200240FC
:102BF000014600200A46842A01D0C91C08467047B5
:102C000080B5FDF757FC002002BD38B584B00446FE
:102C10000D466069002815D0A069002812D0B4F9CB
:102C20000800FFF7E5FFA169029161690191009039
:102C30002B46226921686068FDF758FA03900398D3
:102C400005B030BDB4F90800FFF7D2FF03A9019128
:102C500000902B46226992B221686068FDF783FAE2
:102C60000128ECD00020EBE7002200F063BD00005B
:102C70002DE9FC41040000F02681DFF800552078A2
:102C8000C00713D5686800F00C00042807D06868F6
:102C900000F00C0008283FD16868C0033CD52868C4
:102CA000800303D56068002800F00D81207880073C
:102CB00019D5686810F00C0F07D0686800F00C0098
:102CC00008286BD16868C00368D42868800703D5DA
:102CD0002069012840F0F780286820F0F800616939
:102CE00040EAC10028602078000740F1F180DFF859
:102CF0009C14A069002873D00120086000F034FD06
:102D00000646686A800700F1E08000F02DFD801B18
:102D10000228F6D903204AE16068B0F5803F04D16B
:102D2000286840F4803028601DE0002808D1286819
:102D300020F480302860286820F48020286012E089
:102D4000B0F5A02F286807D140F4802028602868BB
:102D500040F48030286006E020F480302860286845
:102D600020F480202860606800280BD000F0FCFC74
:102D700006462868800399D400F0F6FC801B65287D
:102D8000F7D3C7E700F0F0FC0646286880038DD52E
:102D900000F0EAFC801B6528F7D3BBE7DFF8F013EF
:102DA000206900280ED00120086000F0DDFC0646F6
:102DB0002868800700F1B38000F0D6FC801B022851
:102DC000F6D9A7E70020086000F0CEFC0646286888
:102DD000800788D500F0C8FC801B0228F7D999E746
:102DE0000020086000F0C0FC0646686A80076FD5C6
:102DF00000F0BAFC801B0228F7D98BE7002808D125
:102E0000286A400840002862286A20F004002862EE
:102E100011E00528286A07D140F004002862286ADA
:102E200040F00100286206E0400840002862286A5D
:102E300020F004002862E06800280DD000F094FC27
:102E40000746286A80077BD400F08EFCC01B41F245
:102E500089318842F5D35DE700F086FC0746286A91
:102E600080076DD500F080FCC01B41F2893188429B
:102E7000F5D34FE700F078FCC01B022877D949E76B
:102E800000F072FC001B022840F28C8042E7002018
:102E9000306600F069FC04462868800140F18680B5
:102EA00000F062FC001B0228F6D933E701280AD0A3
:102EB000686800F48031226A914204D100F47010F5
:102EC000616A884272D0012071E0012000F043F96C
:102ED000207840073AD50026E869C00009D4E8699F
:102EE00040F08050E861E86900F080500090009860
:102EF0000126DFF8A0723868C00518D4386840F49D
:102F00008070386000F030FC80463868C0050ED410
:102F100000F02AFCA0EB08006528F6D3FAE6286842
:102F200020F0F800616940EAC1002860DBE6E06853
:102F300001287FF463AF286A40F0010028627AE735
:102F4000012E03D1E86920F08050E861E069002893
:102F50002CD0696801F00C010829A7D0DFF8306295
:102F6000022894D10020306600F0FEFB0746286856
:102F700080013FF57FAF206AB0F5803F05D16968D9
:102F800021F40031A06801436960696821F474117B
:102F9000206A0143606A014369600120306600F0E5
:102FA000E3FB0446286880017FF56AAF0020BDE896
:102FB000F6812DE9F04104460F46002C00F0858093
:102FC000754E306800F00700B84209D23068C0087A
:102FD00057EAC0003060306800F00700B84274D192
:102FE0002068664D810712D5400703D5686840F414
:102FF000E06068602078000703D5686840F460509E
:103000006860696821F0F001A06801436960207878
:10301000C0074BD56068012803D12968890308D40B
:1030200053E00228296802D1890102D44DE08907C2
:103030004BD56968890850EA8100686000F094FB0C
:103040008046686800F00C006168B0EB810F2DD0FD
:1030500000F08AFBA0EB080041F289318842F0D3EE
:10306000032021E02078400705D5696821F4E0615C
:10307000E068014369602078000706D5686820F49D
:103080006050216940EAC100686000F021F84349BE
:103090006A68C2F30312895CC8403A4908603A483A
:1030A000006800F0E9FA0020BDE8F081306800F027
:1030B00007008742D6D23068C00857EAC0003060A7
:1030C000306800F00700B842CCD00120ECE70000E7
:1030D00033490A6802F00C00082812D133A0C2F369
:1030E0008343C05CD20309D534A20968C1F34041CF
:1030F000525C23494843B0FBF2F0704729494843EA
:1031000070471F4870471F480068704780B5FFF739
:10311000FAFF2549224A1268C2F3C222895CC840DC
:1031200002BD0F2202601E4A136803F003034360CE
:10313000136803F0F0038360136803F4E063C36073
:103140001268D20802F4E06202611348006800F0DD
:1031500007000860704781B00A490968C9084FF440
:103160007A72B1FBF2F14843009000BF0098411E13
:1031700000910028F9D101B0704700000010024012
:1031800000127A00600000205C00002080044242AF
:103190000000424200700040002002406C510008D4
:1031A0000410024000093D00C45200080203040557
:1031B000060708090A0B0C0D0E0F10100102000083
:1031C0002DE9FC410546354C2878C00751D500262D
:1031D000A069C00009D4A06940F08050A061A06936
:1031E00000F080500090009801262D4F3868C005EF
:1031F00019D4386840F48070386000F0B5FA804621
:103200003868C0050FD400F0AFFAA0EB08006528BD
:10321000F6D3032040E000F0A7FAC01B41F2893149
:10322000884217D3F5E7E06910F4407015D069685B
:1032300001F44071884210D0E06920F440701949CF
:1032400001220A6000220A60E061C00705D500F093
:103250008BFA0746E0698007DDD5E16921F440710A
:1032600068680143E161012E03D1A06920F080501C
:10327000A0612878800705D5216821F44041A8681D
:10328000014321602878C00605D5216821F480011A
:10329000E868014321600020BDE8F6810410024087
:1032A0000070004040044242F8B502460024254622
:1032B0000CE026EA0303C36007E09E4386604E6885
:1032C000B602C668F5D53343C360641C0B68184664
:1032D000E04000F0B1800126A6403340B342F4D173
:1032E0004868002827D001281AD002281DD00328BA
:1032F0002ED0112816D012281AD05C4FB8421AD0FE
:103300005B4FB84217D05B4FB84214D05A4FB84207
:1033100011D05A4FB8420ED0594FB8420BD018E0D6
:10332000CD6816E0CD682D1D13E0CD68083510E09E
:10333000CD680C350DE08868002801D1042508E02F
:10334000012802D10825166103E00825566100E036
:103350000025B3F5807F01D2164600E0161DB3F5B7
:10336000807F01D2A70002E0A4F10807BF000F2070
:10337000D6F800C000FA07FE2CEA0E0C05FA07F793
:1033800047EA0C0737604E68F6009ED53D4E376819
:1033900047F001073760366806F001060096009E88
:1033A0002646B608384F57F826E04FEA840C0CF052
:1033B0000C0C00FA0CF02EEA0000DFF8D0E07245A9
:1033C00002D14FF0000E16E0DFF8C4E0724502D1E2
:1033D0004FF0010E0FE0DFF8BCE0724502D14FF074
:1033E000020E08E0DFF8B0E0724502D14FF0030EA4
:1033F00001E04FF0040E0EFA0CFC4CEA000047F816
:10340000260026484E68F603066802D51E4306606D
:1034100001E09E4306604E68B603466802D51E432F
:10342000466001E09E4346604E68F60286687FF57E
:1034300044AF1E43866042E7F1BD80680140084604
:10344000401E8041C043C00F7047002A01D0016177
:1034500070470904016170470146114A13680B4225
:1034600002D0116000F01EB870470000000011107B
:103470000000121000002110000022100000311086
:1034800000003210181002400800014000080140FE
:10349000000C0140001001400014014000040140F4
:1034A00014040140704700002A4A13684FF6FF01D8
:1034B0000B40000200F4E060184327490843106005
:1034C000704724480068C0F302207047010007D409
:1034D000012200F01F018A402049400941F82020C4
:1034E00070470901020002D41D48815470471D48ED
:1034F00002F00F02104400F8041C704710B400F0F2
:103500000700C0F10703052B00D30423041D072C7B
:1035100001D2002000E0C01E012404FA03F35B1E68
:103520001940814004FA00F0401E1040084310BCCE
:103530007047B9E770B504460D461646FFF7C1FF60
:1035400032462946FFF7DAFF01462046BDE87040C3
:10355000C7E7BBE70CED00E00000FA0500E100E082
:1035600000E400E018ED00E010B5124C0022124912
:10357000204600F0FFF8002801D0FFF7FBFA0F49C2
:10358000204600F00DF9002801D0FFF7F3FA0C49AE
:10359000204600F083FB002801D0FFF7EBFA20461D
:1035A00000F007F9002803D0BDE81040FFF7E2BAA9
:1035B00010BD00BF101A0020840100207000002000
:1035C0007401002000F10103810704D010F8011BF1
:1035D000820781B1FAD10268A2F10131914311F061
:1035E000803104BF50F8042FF6E709BAB1FA81F12F
:1035F00000EBD100401CC01A7047000038B5184CD1
:10360000184D002205F57A71204600F04FFB29463F
:10361000204600F053FB002032BD00207047002000
:10362000704710B501460E4C204600F047FB20467F
:1036300000F064FB002010BD10B50A46084CD4F819
:10364000B812D1F81412002901D0012010BD014692
:10365000204600F02BFB2046BDE8104000F034BBB4
:10366000101A0020EC0D002002494A6808788218E0
:103670004A6070475400002018B587B00146002208
:103680001920FFF757FF1920FFF763FF144801685F
:1036900041F400610160006800F40060009000984F
:1036A00001A902A8FFF73DFDFFF730FD0D4C0E49C3
:1036B000216040F2E731E1600C49B0FBF1F0401EBF
:1036C000606000202061A060204600F02FFB0028F1
:1036D00003D1204600F043FB00E0012008B010BDFC
:1036E0001810024018280020002C014040420F0012
:1036F00081B00E48016841F001010160016801F0EC
:10370000010100910099416841F080514160406899
:1037100000F08050009000980548016821F0E061B9
:1037200041F00071016001B0704700BF1810024005
:103730000400014000B500BF1300964694461039BE
:1037400028BFA0E80C50FAD85FEA417C28BF0CC023
:1037500048BF40F8042BC90728BF20F8022B48BFF8
:1037600000F8012B00BD000001484068704700BF11
:103770005400002010B5002801D1022010BD00F532
:103780002774A369002B01D00023A361002900D076
:10379000616101212170027000F032FC002010BD37
:1037A00002460020002902D0C2F8B412704702205D
:1037B000704780B500F062FC002002BD0020704719
:1037C00010B50224D0F8B422002A04D01268904721
:1037D000002800D10024204610BD80B5D0F8B422C6
:1037E00052689047002002BD38B5044604F52A759A
:1037F000284600F02EFF04F5257001210160418B61
:103800004160017D084610F01F0003D002280BD054
:1038100005D30EE02946204600F0A0FC0EE0294624
:10382000204600F0CCFC09E02946204600F0EEFCE2
:1038300004E001F08001204600F03BFC002032BD96
:1038400038B50446104604F525730A002BD11968D3
:1038500003291FD104F5B0714A680D68AA420CD241
:10386000AA1A0A6049688A4200D30A4692B20146FF
:10387000204600F05DFF002032BD186A0169002972
:1038800004D0187A032801D120468847204600F04A
:1038900057FFF0E70529EED10020186001462046C9
:1038A00000F007FCE7E7186A8269002A05D0187A59
:1038B000032802D120469047DDE7022032BD38B50B
:1038C0000446134604F52575080051D128680228DE
:1038D0003CD1226A616A91420DD2521A226292B29E
:1038E0001946204600F00CFF00231A4611462046D8
:1038F00000F00EFC32E0E269B2FBF1F001FB1020B7
:10390000002812D18A4210D3686882420DD2002268
:103910001146204600F0F4FE00206860034602468F
:103920000146204600F0F4FB18E0286AC16800292F
:1039300004D0287A032801D12046884780212046D8
:1039400000F0B7FB204600F006FF07E0042801D096
:10395000002803D18021204600F0ABFB287B012802
:1039600004D12046FFF72AFF00202873002032BD33
:10397000286A4269002A05D0287A032802D1204605
:103980009047F3E7022032BD10B5044640230022E1
:10399000114600F07BFB04F5AC7001210160402171
:1039A000C1600B4600228021204600F06FFB012001
:1039B000A0614020606204F5257201201072002091
:1039C000106060601061506A002805D06168C9B25B
:1039D0002046126A52689047002010BD01740020F2
:1039E000704700F5277001784170042101700020B4
:1039F000704700F527700178042901D141780170E2
:103A00000020704780B500F527710A78032A04D199
:103A10008969C969002900D08847002002BD0000DB
:103A200070B505460026287C002813D14FF400739A
:103A300002228121284600F029FB0120E8624FF490
:103A4000007302220146284600F020FB0120C5F841
:103A50006C0110E0402302228121284600F016FB71
:103A60000120E862402302220146284600F00EFBB6
:103A70000120C5F86C01082303228221284600F0AA
:103A800005FB012028644FF4077000F04DFB04464D
:103A900005F52E700460002C01D1012617E0406866
:103AA0000068804704F50170314601614161026898
:103AB000287C002806D14FF400730121284600F02D
:103AC00027FB04E040230121284600F021FB30467B
:103AD00070BD10B50446812100F0E3FA0020E062D9
:103AE0000121204600F0DDFA0020C4F86C0182219B
:103AF000204600F0D6FA0020206404F52E742068D9
:103B0000002807D0606840688047206800F01AFBF2
:103B100000202060002010BDF8B504460D4604F5D5
:103B20002773DE6900208DF80000ADF8020007461B
:103B30002978084610F0600022D020283ED1EA887B
:103B40006878002A16D0090609D531461B6A9B6899
:103B50009847EA883146204600F0C4FD33E006F578
:103B600000710870E8884870EA883146204600F005
:103B7000CFFD28E03A4629461B6A9B68984722E019
:103B80006878002804D00A280CD00B2813D015E040
:103B90001878032812D102220DF10201204600F00C
:103BA000A1FD10E01878032808D1012269462046BB
:103BB00000F098FD07E01878032804D02946204635
:103BC00000F05BFD02273846F2BD70B5044604F5EF
:103BD0002E7002688368002A1DD00D4605EB850013
:103BE00014EB8006F069002810D003EB45139B6BA3
:103BF000B0FBF3F503FB1500002807D10020F061AE
:103C000003460246204600F07BFA02E00020C2F89C
:103C10001402002070BD022070BD70B500F52E7436
:103C2000256805F5017600F07BFAB0602068002871
:103C300007D005F5037130686268D26890470020AC
:103C400070BD022070BD10B500F52E70016843688C
:103C5000002B09D001F500742078FF2804D0627889
:103C60009B689847FF202070002010BD43210180F1
:103C70000648704743210180054870474321018071
:103C8000044870470A21018003487047EC00002077
:103C9000A80000203001002064000020024602201D
:103CA000002902D0C2F8BC1200207047D0F8B80238
:103CB00000F502700160826000207047D0F8B80201
:103CC000C0F804120020704780B5D0F8B81200295F
:103CD00012D001F50272D16800290BD10121D16007
:103CE0009168016393689BB21268812100F008FA21
:103CF000002002BD012002BD022002BD80B5D0F827
:103D0000B812002910D0D1F80422017C002905D175
:103D10004FF40073012100F0FBF903E0402301217F
:103D200000F0F6F9002002BD022002BD38B5040003
:103D300001D1012032BD04F13C056878002804D18E
:103D400000202870204600F0FFF802206870211D36
:103D5000206800F0BEF801206870002032BD0168C4
:103D6000CA6842F00102CA600068816801F0070178
:103D7000062903D0016841F001010160002070476D
:103D800010B5044620680169890717D5C1688907FD
:103D900014D56FF00201016101202077206880694D
:103DA00010F0030F204602D000F0E0FC04E000F029
:103DB000DEFC204600F0DCFC002020772068016952
:103DC000490717D5C168490714D56FF0040101618F
:103DD000022020772068806910F4407F204602D0BE
:103DE00000F0C4FC04E000F0C2FC204600F0C0FC7F
:103DF0000020207720680169090717D5C1680907E5
:103E000014D56FF008010161042020772068C06993
:103E100010F0030F204602D000F0A8FC04E000F0F0
:103E2000A6FC204600F0A4FC002020772068016951
:103E3000C90617D5C168C90614D56FF01001016114
:103E4000082020772068C06910F4407F204602D007
:103E500000F08CFC04E000F08AFC204600F088FCB6
:103E60000020207720680169C90708D5C168C90703
:103E700005D56FF0010101612046FEF763FE206861
:103E80000169090608D5C168090605D56FF08001EA
:103E90000161204600F06DFC20680169490608D5E3
:103EA000C168490605D56FF040010161204600F068
:103EB00061FC2068016989060AD5C168890607D5B1
:103EC0006FF0200101612046BDE8104000F053BCB6
:103ED00010BD10B40368184CA04208D0B0F1804F58
:103EE00005D0164A904202D0154A904203D123F0E1
:103EF00070034A681343A04208D0B0F1804F05D048
:103F00000E4A904202D00E4A904203D123F44073ED
:103F1000CA68134323F080034A69134303608A6825
:103F2000C2620A688262A04202D10969054A116030
:103F30000121416110BC7047002C01400004004089
:103F400000080040302C01407047000000687849AC
:103F5000884200D0704780B57648016841F400017E
:103F60000160006800F400000090009800221146F3
:103F70001420FFF7DFFA1420BDE80240FFF7E9BA8A
:103F800000F50C71D0F86802FFF72EBC0A4600EB72
:103F90004212D2F83C21D0F86802FFF751BC0A4621
:103FA00000EB4212D26BD0F86802FFF788BCD0F861
:103FB0006802FFF727BD10B50446A068022801D0AB
:103FC000FEF7D8FD0121D4F86802FFF707FDD4F809
:103FD0006802BDE81040FFF7D7BC10B50446D4F81E
:103FE0006802FFF7FEFCA069002804D0524801686F
:103FF00041F00601016010BDD0F86802FFF7F9BC7E
:1040000010B504464D48C0F86842C4F8C00248499B
:104010000160082141600221816000218161C1614C
:10402000016200F0A9FB002801D0FEF7A3FD1823D0
:1040300000221146D4F8C00200F030FF58230022BD
:104040008021D4F8C00200F029FFC0230022812182
:10405000D4F8C00200F022FF4FF48873002201213F
:10406000D4F8C00200F01AFF4FF4807300228221BE
:10407000D4F8C00200F012FF002010BD80B5D0F8C7
:10408000C00200F0DEFBBDE802405DE010B51C465A
:1040900013462246D0F8C00200F0A1FCBDE8104053
:1040A00052E080B5D0F8C00200F0CAFCBDE8024082
:1040B0004AE080B5D0F8C00200F022FDBDE8024021
:1040C00042E080B5D0F8C00200F051FDBDE80240EA
:1040D0003AE0D0F8C0020A4602F07F0200EB42103C
:1040E000090602D590F82A00704790F82A01704717
:1040F00080B5D0F8C00200F05EFCBDE8024023E0CD
:1041000080B5D0F8C00200F0E1FCBDE802401BE041
:1041100080B5D0F8C00200F0B8FCBDE8024013E062
:10412000D0F8C00200F0CBBC05487047000000008A
:10413000005C00401C10024010ED00E0D41C002088
:10414000942100207047704701460020002904D0C8
:10415000022901D1012070470220704780B50A78FA
:1041600012F0600208D0202A01D0402A23D1D0F8D2
:10417000B4229268904720E04A78092A1BD8DFE8E9
:1041800002F011171A141A08051A0E0B00F0EEF8B7
:1041900013E000F09AF910E000F0BEF90DE000F035
:1041A00013FA0AE000F027FA07E000F03AFA04E018
:1041B00000F040FA01E000F060FA002002BD38B5DE
:1041C00004460D46287810F0600003D0202801D066
:1041D000402816D104F527721078401E022810D806
:1041E000287902280DDA20469269926890470146A4
:1041F000E888002808D1002906D1204600F0A0FA5E
:1042000002E0204600F039FA002032BD38B50446FD
:1042100008460179027812F060030BD0202B01D000
:10422000402B78D10146204604F5277292699268A6
:10423000904774E002F06002202A08D1014620462F
:1042400004F5277292699268BDE8384010474278B9
:10425000002A37D0012A15D0032A5CD194F89C2279
:10426000022A16D0032A56D14288002A26D10029D4
:1042700024D0802922D0C08800281FD12046FFF7F3
:1042800018FF1BE094F89C22022A02D0032A0CD0CB
:1042900041E000293FD080293DD02046FFF709FFAB
:1042A00080212046FFF705FF39E04088002836D1FD
:1042B00011F07F0F02D02046FFF703FF204600F0E9
:1042C0003FFA2CE094F89C22022A02D0032A18D04C
:1042D00021E0002901D080291DD101F07F0000EBF1
:1042E000800204EB8200090602D500F1140101E00E
:1042F00000F5AA71002008600222204600F0F2F9C1
:104300000DE0142301F00F025A4322440D0608D594
:104310009269002A09D10146204600F0AEF900203A
:1043200032BDD2F85821002AF5D001F07F00434376
:10433000E0180A0602D500F1140501E000F5AA759F
:10434000002901D0802902D10020286007E0204602
:10435000FFF7BFFE401E8041C043C00F286002220D
:104360002946204600F0BEF9D9E70000F8B504461A
:104370000D460020ADF80000074606466888014655
:10438000090A491E062900F27D80DFE801F0040CCD
:104390001F7B7B636E006946207CD4F8B0221268D4
:1043A0009047074673E004F52C704168207C002894
:1043B000684605D1896A884707460220787066E01A
:1043C000C96A884707460220787060E0C0B20528B5
:1043D00058D8DFE800F0030D17212B35D4F8B002D0
:1043E0004268002A4ED06946207C904707464EE03E
:1043F000D4F8B0028268002A44D06946207C9047F5
:10440000074644E0D4F8B002C268002A3AD06946B0
:10441000207C904707463AE0D4F8B0020269002AAF
:1044200030D06946207C9047074630E0D4F8B0028F
:104430004269002A26D06946207C9047074626E03C
:10444000D4F8B0028269002A1CD06946207C9047CB
:1044500007461CE0207C002814D1684604F52C7126
:104460004968496B8847074611E0207C002809D13C
:10447000684604F52C714968096B88470746072090
:10448000787004E02946204600F0F7F80126002E57
:104490001AD1BDF80000002810D0E88800280DD0FF
:1044A000BDF80000E988884200D90846ADF8000050
:1044B000BDF800203946204600F014F9E8880028AD
:1044C00002D1204600F03CF9F1BD70B50446888861
:1044D00000281DD1C88800281AD14D882846802878
:1044E00016D205F07F0504F52776307803280FD023
:1044F000B57029462046FFF7FBFD204600F020F965
:10450000002D02D00220307070BD0120307070BDCF
:104510002046BDE87040B0E070B504460D46294E17
:104520006888307031780846022804DB2946204626
:10453000BDE87040A1E094F89C02022802D0032854
:1045400011D035E0002909D008466060032084F8C6
:104550009C022046FFF734F9022824D02046BDE80B
:10456000704000F0EDB800290DD1022084F89C02C3
:104570000020606001462046FFF72FF92046BDE885
:10458000704000F0DDB860688142E7D00146C9B2F2
:104590002046FFF722F93178084660602046FFF791
:1045A0000FF90228DAD129462046BDE8704064E0C0
:1045B0002946204600F061F831782046BDE8704079
:1045C000FFF70BB95C280020CA88012A12D190F8A5
:1045D0009C22521E012A02D9921E07D00AE0002115
:1045E0008160012200F1080100F07CB80122011D68
:1045F00000F078B841E000F5277213785B1E022BBB
:104600000ED8CB88022B0BD10121C1609168002903
:1046100001D00321C160022200F10C0100F062B858
:104620002BE04988012904D10121C0F8A41200F02F
:1046300087B8704700F5277213785B1E022B06D8E7
:104640004988012904D10021916000F079B814E073
:1046500070470A7802704A7842708A78CB7802EB09
:10466000032242800A794B7902EB032282808A7905
:10467000C97902EB0122C280704710B5044680213F
:10468000FFF717FD00212046BDE81040FFF711BDE0
:1046900070B504460D461646002C18D000F018F8E8
:1046A0004000801C30803078287003206870022120
:1046B0000AE014F8010B0A46D2B2A854491C0020A3
:1046C0000A46D2B2A854491C20780028F1D170BD06
:1046D0000246002001E0401C521C11780029FAD14A
:1046E000C0B2704780B513460222C0F894221A4621
:1046F000C26102620A460021FFF702FD002002BDEE
:1047000080B513460A460021FFF7FAFC002002BDDF
:1047100010B513460322C0F8942200F5AE721C4671
:10472000146054600A460021FFF7F2FC002010BD1F
:1047300080B513460A460021FFF7EAFC002002BDBF
:1047400080B50421C0F8941200231A461146FFF7E1
:10475000D7FC002002BD80B50521C0F894120023CB
:104760001A461146FFF7D4FC002002BD704770477F
:10477000704770477047704730B585B0040001D16D
:1047800001205CE004F50A756878002804D1002057
:1047900028702046FFF7DAFB032068702068FDF7D9
:1047A00033FA211D83B068462022FDF7DDF90EBCE7
:1047B0002068FDF71DFA002834D100212068FDF79C
:1047C0002CFA00200DE004EB4011283101224A7040
:1047D0000870C8810022CA700A614A618A61401C5F
:1047E000C0B261688842EED3002002460BE004EBC1
:1047F000401101F594714A700870CA700A614A61EB
:104800008A61401CC0B261688842F0D3211D83B028
:1048100068462022FDF7A8F90EBC2068FDF7FFF9D5
:10482000002803D002206870012008E0002084F8EE
:104830002400012068702068FDF7E1FD002005B02C
:1048400030BD10B5044694F82802012801D1022099
:1048500010BD012084F8280201462046FFF773FCB2
:104860002068FDF7CAFD2068FDF7C6F9002084F82E
:10487000280210BD10B504462068FDF7C2FD0004F3
:1048800002D5204600F0A1F92068FDF7BAFD4005E9
:104890000ED52168B1F844204FF6FF300240A1F850
:1048A00044202046FFF787FB0021204600F083F8D4
:1048B0002068FDF7A6FD400407D52168B1F8442023
:1048C0004BF6FF700240A1F844202068FDF799FDE7
:1048D000800407D52168B1F844204DF6FF700240EE
:1048E000A1F844202068FDF78CFDC0041AD521688A
:1048F000B1F840204FF6FB700240A1F8402021683B
:10490000B1F840204FF6F7700240A1F84020204651
:10491000FFF772FB2168B1F844204EF6FF700240A9
:10492000A1F844202068FDF76CFD000525D520681E
:10493000B0F8401041F00801A0F840102168B1F82B
:1049400044204FF2FF700240A1F844202068B0F8E4
:10495000401041F00401A0F840102068FDF751FD1F
:10496000C00407D52168B1F844204EF6FF7002401C
:10497000A1F844202046FFF730FB2068FDF741FDF9
:1049800080050AD52168B1F844204FF6FF50024057
:10499000A1F844202046FFF70AFB2068FDF731FD0F
:1049A000C00507D52168B1F844204FF6FF600240EA
:1049B000A1F8442010BD10B5044694F8280201283F
:1049C00001D1022010BD012084F8280284F82410AF
:1049D0002068FDF70BFD002084F8280210BD38B5D3
:1049E0000546084600F0070005EB40100C0604D50C
:1049F00000F128040120607003E000F594740020A9
:104A0000607001F0070121702261E3706078002876
:104A100001D02078E081022B01D10020207195F88F
:104A20002802012801D1022032BD012085F8280288
:104A300021462868FDF702F9002085F8280232BDDA
:104A400010B50446084600F0070004EB40100A06C3
:104A500003D528300122427003E000F59470002253
:104A6000427001F00701017094F82812012901D168
:104A7000022010BD012184F8281201462068FDF7AC
:104A80002AFA002084F8280210BD10B50C4604F064
:104A9000070400EB441404F594746261A3610022DE
:104AA000E261627011F0070121700068214602D1B5
:104AB000FDF7C0FA01E0FDF7BDFA002010BD01F0DE
:104AC000070100EB4110D0F84401704710B50C46C7
:104AD00004F0070400EB441428346261A36100224F
:104AE000E2610122627011F0070121700068214625
:104AF00002D1FDF79FFA01E0FDF79CFA002010BDFE
:104B000038B505460C46204600F00700696881422A
:104B100001D2012032BD210606D505EB401000F17F
:104B200028010120487006E0204605EB401000F502
:104B30009471002048700120887004F007040C7004
:104B400095F82802012801D1022032BD012085F804
:104B500028022868FDF7E6FB002C04D105F50C714E
:104B60002868FDF751FC002085F8280232BD10B5F9
:104B700004460846626800F00F039A4201D2012001
:104B800010BD00F0070004EB40100A0603D52830E2
:104B90000122427003E000F594700022427000226E
:104BA000827001F00701017094F82812012901D1E7
:104BB000022010BD012184F8281201462068FDF76B
:104BC000CEFB002084F8280210BD2DE9F0410546F7
:104BD0002BE0018848F60F72114041F4004101803A
:104BE00005F124042868B0F85010227901EBC201C5
:104BF00000EB410000F204400088C0F3090020628D
:104C0000A1690844A06100212846FFF7C8F920786F
:104C100000280AD0E069002807D1207840F0800001
:104C20002968A1F84C0000202070286800F1440198
:104C30000A88120440F12F810A8812F00F0440F014
:104C40008280D206C5D5028813051FD505F594725A
:104C50008989137801EBC30100EB410000F20C409D
:104C60000388C3F30903D361D28805F50C71286862
:104C7000FDF7DFFB2868018840F68F72114041F094
:104C8000800101802846FFF77BF9CEE71104CCD5DF
:104C9000018840F68F72114041F080010180286840
:104CA00005F59474B0F85010227801EBC20100EBC6
:104CB000410000F20C400388C3F30903002BE361B9
:104CC0000ED0616900290BD0E2882868FDF7B1FB9E
:104CD0006069E1690844606100212846FFF756F9E0
:104CE0002968B1F85000411801F20C4120690028F0
:104CF00009D1088848F2FF3210400880088840F443
:104D00000040088012E03F28024606D25208C00741
:104D100000D5521C9002088008E0520910F01F0FC5
:104D200000D1521E900240F400400880286801889B
:104D30004BF68F72114081F4405141F4004141F033
:104D40008001018071E730F82460310477D530F8B4
:104D5000241040F68F72114041F0800120F8241099
:104D600005EB441000F594773A781346286884469A
:104D7000397B002914D1B0F8501011EBC3030CEBB0
:104D8000430C0CF20C4CBCF80080C8F30908B8F1D5
:104D9000000F3DD04346FA887969FDF74AFB37E0BA
:104DA00030F822104904B0F8501012D511EBC303AB
:104DB0000CEB430C0CF2044CBCF80080C8F309085F
:104DC000B8F1000F17D043463A897969FDF731FBF6
:104DD00011E011EBC3030CEB430C0CF20C4CBCF8D0
:104DE0000080C8F30908B8F1000F04D043467A895F
:104DF0007969FDF71EFB3878296831F8202048F6DC
:104E00008F731A4042F4004242F0C00221F8202081
:104E10004046F9694118F961796901EB08027A6144
:104E2000BB69002B02D03969884204D23978284600
:104E3000FFF7ACF803E039782846FFF726FE300686
:104E40007FF5F3AE05EB44102830296831F82420B3
:104E500048F60F731A4042F4004221F824202968D2
:104E6000B1F85020037802EBC30201EB420101F2DA
:104E700004410988C1F30901C16142690A444261E0
:104E800083690178002B284602D1FFF788F8CCE629
:104E9000FFF71CFEC9E60020BDE8F08110B40C0647
:104EA00005D501F0070100EB4110283003E000EBCD
:104EB000411000F59470002A03D100210173C380D2
:104EC00004E00121017303811B0C4381002010BC0D
:104ED00070470000122008802C487047042008808A
:104EE0002B48704710B50A463AA32A4C00282146A1
:104EF000184602D1FFF7CCFB01E0FFF7C9FB2046C3
:104F000010BD000010B50A46224C214637A0FFF71D
:104F1000BFFB204610BD80B51A20088000F021F8A4
:104F20001D4802BD10B50A4635A31A4C002821467B
:104F3000184602D1FFF7ACFB01E0FFF7A9FB2046C2
:104F400010BD000010B50A4630A3124C00282146BF
:104F5000184602D1FFF79CFB01E0FFF799FB2046C2
:104F600010BD38B50D494C680868896808180BD021
:104F7000094D0822A91C00F013F8042205F11201C2
:104F80002046BDE838400BE031BD0000A001002004
:104F9000B4010020B4230020B8010020E8F7FF1F6F
:104FA00030B400231446A34212DA0446240F0A2C1C
:104FB00003D3373401F8134002E0303401F81340D2
:104FC0000001002401EB43056C705B1CDBB2E9E7D8
:104FD00030BC704753544D3332205669727475613A
:104FE0006C20436F6D506F727400000053544D6914
:104FF00063726F656C656374726F6E6963730000D2
:1050000043444320436F6E66696700004344432076
:10501000496E746572666163650000003120416706
:1050200075617264616E646F204E6976656C2041B3
:105030006C746F20506F636F0D0A000033204C6951
:1050400067616E646F204D6F746F720D0A0000000F
:10505000342E312043616978615F4E6976656C4119
:105060006C746F0D0A000000342E3220506F636F95
:105070005F4E6976656C426169786F0D0A000000C9
:105080000D0A0D0A0000000064656661756C7454B9
:1050900061736B007461736B4D6F746F724C6967F1
:1050A00061646F0062746E4C696761724D74720066
:1050B0007047FEE7FEE7FEE7FEE7704780B5012098
:1050C000FEF7CAF90120BDE80240FDF7D5BA80B568
:1050D0000820FEF7C1F90820BDE80240FDF7CCBA70
:1050E0000D48FFF7C7BB80B52020FEF7B5F940207B
:1050F000FEF7B2F98020FEF7AFF92020FDF7BCFAE9
:105100004020FDF7B9FA8020BDE80240FDF7B4BAAF
:105110000248FEF735BE0000D41C002018280020ED
:105120000E49086840F0010008604A680C480240D7
:105130004A600A680B4802400A60086820F4802030
:105140000860486820F4FE0048604FF41F00886043
:105150004FF00060044908607047000000100240F2
:105160000000FFF8FFFFF6FE08ED00E00000000081
:1051700000000000010203040607080937205465F7
:105180006D706F206D6178696D6F206465206D6F43
:10519000746F72206C696761646F20657863656401
:1051A00069646F0D0A000000362042746E20506161
:1051B0007261204C69676172204D6F746F72206656
:1051C000696D20457865637563616F0D0A000000A5
:1051D00010B5074979441831064C7C44163404E074
:1051E0000A68081D114488470146A142F8D110BD44
:1051F000500000006C00000032204167756172644D
:10520000616E646F204E6976656C20426169786FCB
:105210002043616978610D0A000000003520427466
:105220006E2050617261204C69676172204D6F740D
:105230006F72206163696F6E61646F0D0A00000018
:10524000CFC8FFFF8C260000D40100200000000022
:10525000F7BAFFFF10010000080200000000002064
:1052600000F00DF8002801D0FFF7B2FFAFF3008087
:105270000020AFF30080FDF7F3F800F002F8012002
:10528000704700F001B800000746384600F002F809
:10529000FBE7000080B5AFF30080024A1100182040
:1052A000ABBEFBE7260002000148804701480047EB
:1052B00021510008B9520008AFF30080AFF300801D
:1052C000FFF7CEFF0000000001020304FFF7FEBF5E
:1052D000FFF7FEBFFFF7FEBFFFF7FEBFFFF7FEBF02
:1052E000FFF7FEBFFFF7FEBFFFF7FEBFFFF7FEBFF2
:1052F000FFF7FEBFFFF7FEBFFFF7FEBFFFF7FEBFE2
:10530000FFF7FEBFFFF7FEBFFFF7FEBFFFF7FEBFD1
:10531000FFF7FEBFFFF7FEBFFFF7FEBFFFF7FEBFC1
:10532000FFF7FEBFFFF7FEBFFFF7FEBFFFF7FEBFB1
:10533000FFF7FEBFFFF7FEBFFFF7FEBFFFF7FEBFA1
:10534000FFF7FEBFFFF7FEBFFFF7FEBFFFF7FEBF91
:10535000FFF7FEBFFFF7FEBFFFF7FEBFFFF7FEBF81
:10536000FFF7FEBFF206000110071C500008F851BD
:1053700000083C0812500412680410031C52000874
:10538000A814127C0412801012013D920F4112AA3F
:1053900001210F520114221008100524F4000A06FE
:1053A00000020B2240181003213A0008D304200207
:1053B000193B00081F1003473C0008CB0C431B3C63
:1053C000106101127510126D04127D041285041013
:1053D0000909024300020100C03209046112020BF4
:1053E000101E0524001001052401000104240202FE
:1053F00005240600010705820308001009040100C6
:10540000020A4E1002070501027B200107058107F1
:10541000F2280044224007228107200100090744A6
:10542000F22C044413FD35F010023600081F04125C
:1054300023041003D54E0008DD041003054F0008B7
:10544000E50812170812250412450412124310062B
:1054500002020040830440577917020345F0050813
:08546000040309041A03000112
:04000005080052B9E4
:00000001FF
